{
  "contractName": "greyhoundFactory",
  "abi": [
    {
      "constant": true,
      "inputs": [
        {
          "name": "",
          "type": "uint256"
        }
      ],
      "name": "greyhounds",
      "outputs": [
        {
          "name": "name",
          "type": "string"
        },
        {
          "name": "ear_marks",
          "type": "string"
        },
        {
          "name": "sexSireBirthdate",
          "type": "string"
        },
        {
          "name": "status",
          "type": "string"
        },
        {
          "name": "owners",
          "type": "string"
        },
        {
          "name": "ref",
          "type": "uint256"
        }
      ],
      "payable": false,
      "stateMutability": "view",
      "type": "function",
      "signature": "0x4b2e502e"
    },
    {
      "anonymous": false,
      "inputs": [
        {
          "indexed": false,
          "name": "greyhoundId",
          "type": "uint256"
        },
        {
          "indexed": false,
          "name": "name",
          "type": "string"
        }
      ],
      "name": "GreyhoundAdded",
      "type": "event",
      "signature": "0x74747eccd6c1e50922b1a5aa0a40574e0da3885be753c961b17c08dcc4b10394"
    },
    {
      "constant": true,
      "inputs": [],
      "name": "getNumGreyhounds",
      "outputs": [
        {
          "name": "",
          "type": "uint256"
        }
      ],
      "payable": false,
      "stateMutability": "view",
      "type": "function",
      "signature": "0x1c406fc8"
    },
    {
      "constant": false,
      "inputs": [
        {
          "name": "_name",
          "type": "string"
        },
        {
          "name": "_ear_marks",
          "type": "string"
        },
        {
          "name": "_sexSireBirthdate",
          "type": "string"
        },
        {
          "name": "_status",
          "type": "string"
        },
        {
          "name": "_owners",
          "type": "string"
        },
        {
          "name": "_address",
          "type": "address[]"
        }
      ],
      "name": "createUniqueGreyhound",
      "outputs": [
        {
          "name": "",
          "type": "uint256"
        }
      ],
      "payable": false,
      "stateMutability": "nonpayable",
      "type": "function",
      "signature": "0x55f0244c"
    },
    {
      "constant": false,
      "inputs": [],
      "name": "findMyGreyhounds",
      "outputs": [
        {
          "name": "",
          "type": "uint256[]"
        }
      ],
      "payable": false,
      "stateMutability": "nonpayable",
      "type": "function",
      "signature": "0x92bb4167"
    },
    {
      "constant": false,
      "inputs": [
        {
          "name": "_name",
          "type": "string"
        },
        {
          "name": "_new_name",
          "type": "string"
        },
        {
          "name": "_status",
          "type": "string"
        },
        {
          "name": "_ear_marks",
          "type": "string"
        },
        {
          "name": "_owners",
          "type": "string"
        }
      ],
      "name": "updateGreyhound",
      "outputs": [
        {
          "name": "",
          "type": "string"
        }
      ],
      "payable": false,
      "stateMutability": "nonpayable",
      "type": "function",
      "signature": "0x8a838f13"
    },
    {
      "constant": true,
      "inputs": [
        {
          "name": "_name",
          "type": "string"
        }
      ],
      "name": "getUsers",
      "outputs": [
        {
          "name": "",
          "type": "address[]"
        }
      ],
      "payable": false,
      "stateMutability": "view",
      "type": "function",
      "signature": "0xbf02c9fc"
    },
    {
      "constant": true,
      "inputs": [
        {
          "name": "_name",
          "type": "string"
        }
      ],
      "name": "getGreyhoundRef",
      "outputs": [
        {
          "name": "",
          "type": "uint256"
        }
      ],
      "payable": false,
      "stateMutability": "view",
      "type": "function",
      "signature": "0x44fbb543"
    }
  ],
  "bytecode": "0x6080604052600080556010600155600154600a0a60025534801561002257600080fd5b50611e70806100326000396000f3fe608060405260043610610083576000357c0100000000000000000000000000000000000000000000000000000000900463ffffffff1680631c406fc81461008857806344fbb543146100b35780634b2e502e1461018f57806355f0244c146103fa5780638a838f13146107c657806392bb416714610b63578063bf02c9fc14610bcf575b600080fd5b34801561009457600080fd5b5061009d610cec565b6040518082815260200191505060405180910390f35b3480156100bf57600080fd5b50610179600480360360208110156100d657600080fd5b81019080803590602001906401000000008111156100f357600080fd5b82018360208201111561010557600080fd5b8035906020019184600183028401116401000000008311171561012757600080fd5b91908080601f016020809104026020016040519081016040528093929190818152602001838380828437600081840152601f19601f820116905080830192505050505050509192919290505050610cf5565b6040518082815260200191505060405180910390f35b34801561019b57600080fd5b506101c8600480360360208110156101b257600080fd5b8101908080359060200190929190505050610e45565b60405180806020018060200180602001806020018060200187815260200186810386528c818151815260200191508051906020019080838360005b8381101561021e578082015181840152602081019050610203565b50505050905090810190601f16801561024b5780820380516001836020036101000a031916815260200191505b5086810385528b818151815260200191508051906020019080838360005b83811015610284578082015181840152602081019050610269565b50505050905090810190601f1680156102b15780820380516001836020036101000a031916815260200191505b5086810384528a818151815260200191508051906020019080838360005b838110156102ea5780820151818401526020810190506102cf565b50505050905090810190601f1680156103175780820380516001836020036101000a031916815260200191505b50868103835289818151815260200191508051906020019080838360005b83811015610350578082015181840152602081019050610335565b50505050905090810190601f16801561037d5780820380516001836020036101000a031916815260200191505b50868103825288818151815260200191508051906020019080838360005b838110156103b657808201518184015260208101905061039b565b50505050905090810190601f1680156103e35780820380516001836020036101000a031916815260200191505b509b50505050505050505050505060405180910390f35b34801561040657600080fd5b506107b0600480360360c081101561041d57600080fd5b810190808035906020019064010000000081111561043a57600080fd5b82018360208201111561044c57600080fd5b8035906020019184600183028401116401000000008311171561046e57600080fd5b91908080601f016020809104026020016040519081016040528093929190818152602001838380828437600081840152601f19601f820116905080830192505050505050509192919290803590602001906401000000008111156104d157600080fd5b8201836020820111156104e357600080fd5b8035906020019184600183028401116401000000008311171561050557600080fd5b91908080601f016020809104026020016040519081016040528093929190818152602001838380828437600081840152601f19601f8201169050808301925050505050505091929192908035906020019064010000000081111561056857600080fd5b82018360208201111561057a57600080fd5b8035906020019184600183028401116401000000008311171561059c57600080fd5b91908080601f016020809104026020016040519081016040528093929190818152602001838380828437600081840152601f19601f820116905080830192505050505050509192919290803590602001906401000000008111156105ff57600080fd5b82018360208201111561061157600080fd5b8035906020019184600183028401116401000000008311171561063357600080fd5b91908080601f016020809104026020016040519081016040528093929190818152602001838380828437600081840152601f19601f8201169050808301925050505050505091929192908035906020019064010000000081111561069657600080fd5b8201836020820111156106a857600080fd5b803590602001918460018302840111640100000000831117156106ca57600080fd5b91908080601f016020809104026020016040519081016040528093929190818152602001838380828437600081840152601f19601f8201169050808301925050505050505091929192908035906020019064010000000081111561072d57600080fd5b82018360208201111561073f57600080fd5b8035906020019184602083028401116401000000008311171561076157600080fd5b919080806020026020016040519081016040528093929190818152602001838360200280828437600081840152601f19601f820116905080830192505050505050509192919290505050611188565b6040518082815260200191505060405180910390f35b3480156107d257600080fd5b50610ae8600480360360a08110156107e957600080fd5b810190808035906020019064010000000081111561080657600080fd5b82018360208201111561081857600080fd5b8035906020019184600183028401116401000000008311171561083a57600080fd5b91908080601f016020809104026020016040519081016040528093929190818152602001838380828437600081840152601f19601f8201169050808301925050505050505091929192908035906020019064010000000081111561089d57600080fd5b8201836020820111156108af57600080fd5b803590602001918460018302840111640100000000831117156108d157600080fd5b91908080601f016020809104026020016040519081016040528093929190818152602001838380828437600081840152601f19601f8201169050808301925050505050505091929192908035906020019064010000000081111561093457600080fd5b82018360208201111561094657600080fd5b8035906020019184600183028401116401000000008311171561096857600080fd5b91908080601f016020809104026020016040519081016040528093929190818152602001838380828437600081840152601f19601f820116905080830192505050505050509192919290803590602001906401000000008111156109cb57600080fd5b8201836020820111156109dd57600080fd5b803590602001918460018302840111640100000000831117156109ff57600080fd5b91908080601f016020809104026020016040519081016040528093929190818152602001838380828437600081840152601f19601f82011690508083019250505050505050919291929080359060200190640100000000811115610a6257600080fd5b820183602082011115610a7457600080fd5b80359060200191846001830284011164010000000083111715610a9657600080fd5b91908080601f016020809104026020016040519081016040528093929190818152602001838380828437600081840152601f19601f820116905080830192505050505050509192919290505050611242565b6040518080602001828103825283818151815260200191508051906020019080838360005b83811015610b28578082015181840152602081019050610b0d565b50505050905090810190601f168015610b555780820380516001836020036101000a031916815260200191505b509250505060405180910390f35b348015610b6f57600080fd5b50610b786115e3565b6040518080602001828103825283818151815260200191508051906020019060200280838360005b83811015610bbb578082015181840152602081019050610ba0565b505050509050019250505060405180910390f35b348015610bdb57600080fd5b50610c9560048036036020811015610bf257600080fd5b8101908080359060200190640100000000811115610c0f57600080fd5b820183602082011115610c2157600080fd5b80359060200191846001830284011164010000000083111715610c4357600080fd5b91908080601f016020809104026020016040519081016040528093929190818152602001838380828437600081840152601f19601f82011690508083019250505050505050919291929050505061176e565b6040518080602001828103825283818151815260200191508051906020019060200280838360005b83811015610cd8578082015181840152602081019050610cbd565b505050509050019250505060405180910390f35b60008054905090565b600080600090505b600480549050811015610e3e576000600482815481101515610d1b57fe5b90600052602060002090600702019050836040516020018082805190602001908083835b602083101515610d645780518252602082019150602081019050602083039250610d3f565b6001836020036101000a03801982511681845116808217855250505050505090500191505060405160208183030381529060405280519060200120816000016040516020018082805460018160011615610100020316600290048015610e015780601f10610ddf576101008083540402835291820191610e01565b820191906000526020600020905b815481529060010190602001808311610ded575b5050915050604051602081830303815290604052805190602001201415610e3057806005015492505050610e40565b508080600101915050610cfd565b505b919050565b600481815481101515610e5457fe5b9060005260206000209060070201600091509050806000018054600181600116156101000203166002900480601f016020809104026020016040519081016040528092919081815260200182805460018160011615610100020316600290048015610f005780601f10610ed557610100808354040283529160200191610f00565b820191906000526020600020905b815481529060010190602001808311610ee357829003601f168201915b505050505090806001018054600181600116156101000203166002900480601f016020809104026020016040519081016040528092919081815260200182805460018160011615610100020316600290048015610f9e5780601f10610f7357610100808354040283529160200191610f9e565b820191906000526020600020905b815481529060010190602001808311610f8157829003601f168201915b505050505090806002018054600181600116156101000203166002900480601f01602080910402602001604051908101604052809291908181526020018280546001816001161561010002031660029004801561103c5780601f106110115761010080835404028352916020019161103c565b820191906000526020600020905b81548152906001019060200180831161101f57829003601f168201915b505050505090806003018054600181600116156101000203166002900480601f0160208091040260200160405190810160405280929190818152602001828054600181600116156101000203166002900480156110da5780601f106110af576101008083540402835291602001916110da565b820191906000526020600020905b8154815290600101906020018083116110bd57829003601f168201915b505050505090806004018054600181600116156101000203166002900480601f0160208091040260200160405190810160405280929190818152602001828054600181600116156101000203166002900480156111785780601f1061114d57610100808354040283529160200191611178565b820191906000526020600020905b81548152906001019060200180831161115b57829003601f168201915b5050505050908060050154905086565b60008061119488611940565b905060006111a78989898989878a6119d3565b905060006004828154811015156111ba57fe5b90600052602060002090600702019050806006013390806001815401808255809150509060018203906000526020600020016000909192909190916101000a81548173ffffffffffffffffffffffffffffffffffffffff021916908373ffffffffffffffffffffffffffffffffffffffff160217905550508193505050509695505050505050565b606060008090505b6004805490508110156115a057600060048281548110151561126857fe5b90600052602060002090600702019050876040516020018082805190602001908083835b6020831015156112b1578051825260208201915060208101905060208303925061128c565b6001836020036101000a0380198251168184511680821785525050505050509050019150506040516020818303038152906040528051906020012081600001604051602001808280546001816001161561010002031660029004801561134e5780601f1061132c57610100808354040283529182019161134e565b820191906000526020600020905b81548152906001019060200180831161133a575b50509150506040516020818303038152906040528051906020012014156115925786816000019080519060200190611387929190611bc7565b50858160030190805190602001906113a0929190611bc7565b50848160010190805190602001906113b9929190611bc7565b50838160040190805190602001906113d2929190611bc7565b50600080905060008090505b8260060180549050811015611474576000836006018281548110151561140057fe5b9060005260206000200160009054906101000a900473ffffffffffffffffffffffffffffffffffffffff1690503373ffffffffffffffffffffffffffffffffffffffff168173ffffffffffffffffffffffffffffffffffffffff16141561146657600192505b5080806001019150506113de565b506000151581151514156114eb57816006013390806001815401808255809150509060018203906000526020600020016000909192909190916101000a81548173ffffffffffffffffffffffffffffffffffffffff021916908373ffffffffffffffffffffffffffffffffffffffff160217905550505b816000018054600181600116156101000203166002900480601f0160208091040260200160405190810160405280929190818152602001828054600181600116156101000203166002900480156115835780601f1061155857610100808354040283529160200191611583565b820191906000526020600020905b81548152906001019060200180831161156657829003601f168201915b505050505093505050506115da565b50808060010191505061124a565b506040805190810160405280601481526020017f556e7375636365737366756c207265717565737400000000000000000000000081525090505b95945050505050565b60608080600390805190602001906115fc929190611c47565b50600080905060008090505b60048054905081101561171557600060048281548110151561162657fe5b9060005260206000209060070201905060008090505b8160060180549050811015611706576000826006018281548110151561165e57fe5b9060005260206000200160009054906101000a900473ffffffffffffffffffffffffffffffffffffffff1690503373ffffffffffffffffffffffffffffffffffffffff168173ffffffffffffffffffffffffffffffffffffffff1614156116f85760038360050154908060018154018082558091505090600182039060005260206000200160009091929091909150555084806001019550505b50808060010191505061163c565b50508080600101915050611608565b50600380548060200260200160405190810160405280929190818152602001828054801561176257602002820191906000526020600020905b81548152602001906001019080831161174e575b50505050509250505090565b60608060008090505b60048054905081101561193657600060048281548110151561179557fe5b90600052602060002090600702019050846040516020018082805190602001908083835b6020831015156117de57805182526020820191506020810190506020830392506117b9565b6001836020036101000a0380198251168184511680821785525050505050509050019150506040516020818303038152906040528051906020012081600001604051602001808280546001816001161561010002031660029004801561187b5780601f1061185957610100808354040283529182019161187b565b820191906000526020600020905b815481529060010190602001808311611867575b5050915050604051602081830303815290604052805190602001201415611928578060060180548060200260200160405190810160405280929190818152602001828054801561192057602002820191906000526020600020905b8160009054906101000a900473ffffffffffffffffffffffffffffffffffffffff1673ffffffffffffffffffffffffffffffffffffffff16815260200190600101908083116118d6575b505050505092505b508080600101915050611777565b5080915050919050565b600080826040516020018082805190602001908083835b60208310151561197c5780518252602082019150602081019050602083039250611957565b6001836020036101000a03801982511681845116808217855250505050505090500191505060405160208183030381529060405280519060200120600190049050600254818115156119ca57fe5b06915050919050565b600080600081548092919060010191905055506119ee611c94565b60e0604051908101604052808a815260200189815260200188815260200187815260200186815260200185815260200184815250905060006001600483908060018154018082558091505090600182039060005260206000209060070201600090919290919091506000820151816000019080519060200190611a72929190611cd2565b506020820151816001019080519060200190611a8f929190611cd2565b506040820151816002019080519060200190611aac929190611cd2565b506060820151816003019080519060200190611ac9929190611cd2565b506080820151816004019080519060200190611ae6929190611cd2565b5060a0820151816005015560c0820151816006019080519060200190611b0d929190611d52565b5050500390507f74747eccd6c1e50922b1a5aa0a40574e0da3885be753c961b17c08dcc4b10394818b6040518083815260200180602001828103825283818151815260200191508051906020019080838360005b83811015611b7c578082015181840152602081019050611b61565b50505050905090810190601f168015611ba95780820380516001836020036101000a031916815260200191505b50935050505060405180910390a18092505050979650505050505050565b828054600181600116156101000203166002900490600052602060002090601f016020900481019282601f10611c0857805160ff1916838001178555611c36565b82800160010185558215611c36579182015b82811115611c35578251825591602001919060010190611c1a565b5b509050611c439190611ddc565b5090565b828054828255906000526020600020908101928215611c83579160200282015b82811115611c82578251825591602001919060010190611c67565b5b509050611c909190611ddc565b5090565b60e060405190810160405280606081526020016060815260200160608152602001606081526020016060815260200160008152602001606081525090565b828054600181600116156101000203166002900490600052602060002090601f016020900481019282601f10611d1357805160ff1916838001178555611d41565b82800160010185558215611d41579182015b82811115611d40578251825591602001919060010190611d25565b5b509050611d4e9190611ddc565b5090565b828054828255906000526020600020908101928215611dcb579160200282015b82811115611dca5782518260006101000a81548173ffffffffffffffffffffffffffffffffffffffff021916908373ffffffffffffffffffffffffffffffffffffffff16021790555091602001919060010190611d72565b5b509050611dd89190611e01565b5090565b611dfe91905b80821115611dfa576000816000905550600101611de2565b5090565b90565b611e4191905b80821115611e3d57600081816101000a81549073ffffffffffffffffffffffffffffffffffffffff021916905550600101611e07565b5090565b9056fea165627a7a723058205cc312839f6fec796755969469208c7af5aea8fbb71ff38a617c47c39c2e091f0029",
  "source": "pragma solidity >=0.4.21 <0.6.0;\n\ncontract greyhoundFactory {\n\n    uint numGreyhounds = 0;\n    uint greyhoundRef = 16;\n    uint refModulus = 10 ** greyhoundRef;\n    uint[] myGreyhounds;\n\n    struct Greyhound {\n        string name; // greyhound name - can be updated\n        string ear_marks; // greyhound ear_marks - can be updated (left_ear)\n        string sexSireBirthdate; // these fields won't be updated by update function\n        string status; // e.g. initial registration, new owner(s), retired, euthanised, natural death\n        string owners; // string containing all owners and addresses\n        uint ref; // pseudo-random number\n        address[] users; // initialise an empty array of user addresses\n    }\n\n    Greyhound[] public greyhounds; // all greyhounds ever created\n\n    event GreyhoundAdded(uint greyhoundId, string name);\n\n    function getNumGreyhounds() public view returns (uint) {\n        return numGreyhounds;\n    }\n\n    function _createGreyhound(\n        string memory _name,\n        string memory _ear_marks,\n        string memory _sexSireBirthdate,\n        string memory _status,\n        string memory _owners,\n        uint _randRef,\n        address[] memory _address)\n        private returns(uint) {\n            numGreyhounds++;\n            Greyhound memory greyhound = Greyhound(\n                _name,\n                _ear_marks,\n                _sexSireBirthdate,\n                _status,\n                _owners,\n                _randRef,\n                _address\n            );\n            uint index = greyhounds.push(greyhound) - 1;\n            emit GreyhoundAdded(index, _name);\n            return index;\n    }\n\n    function _generateRandomRef(string memory _str) private view returns (uint) {\n        // generate a pseudo-random 16-digit number\n        // this will be the greyhound's unique identifier\n        uint rand = uint(keccak256(abi.encodePacked(_str)));\n        return rand % refModulus;\n    }\n\n    // create a greyhound with user inputs\n    function createUniqueGreyhound(\n        string memory _name,\n        string memory _ear_marks,\n        string memory _sexSireBirthdate,\n        string memory _status,\n        string memory _owners,\n        address[] memory _address\n        ) public returns(uint) {\n        uint randRef = _generateRandomRef(_name);\n        uint greyhoundId = _createGreyhound(\n            _name,\n            _ear_marks,\n            _sexSireBirthdate,\n            _status,\n            _owners,\n            randRef,\n            _address\n            );\n        Greyhound storage g = greyhounds[greyhoundId];\n        g.users.push(msg.sender);\n        return greyhoundId;\n    }\n\n    // find all greyhounds for an address\n    function findMyGreyhounds() public returns(uint[] memory) {\n        uint[] memory tempGreyhoundList;\n        myGreyhounds = tempGreyhoundList;\n        uint j = 0;\n        for(uint i = 0; i<greyhounds.length; i++){\n            Greyhound storage g = greyhounds[i];\n            for(uint k = 0; k<g.users.length; k++){\n                address a = g.users[k];\n                if(a == msg.sender){\n                    myGreyhounds.push(g.ref);\n                    j++;\n                }\n            }\n        }\n        // return user's list of unique greyhound identifiers\n        return myGreyhounds;\n    }\n\n    // update greyhound\n    function updateGreyhound(\n        string memory _name,\n        string memory _new_name,\n        string memory _status,\n        string memory _ear_marks,\n        string memory _owners) public returns(string memory) {\n            for(uint i = 0; i<greyhounds.length; i++){\n                Greyhound storage g = greyhounds[i];\n                // if greyhound found, update details\n                if(keccak256(abi.encodePacked(g.name)) == keccak256(abi.encodePacked(_name))){\n                    g.name = _new_name;\n                    g.status = _status;\n                    g.ear_marks = _ear_marks;\n                    g.owners = _owners;\n\n                    // only add user if new address\n                    bool userCheck = false;\n                    for(uint k = 0; k<g.users.length; k++){\n                        address a = g.users[k];\n                        if(a == msg.sender){\n                            userCheck = true;\n                        }\n                    }\n                    if(userCheck == false){\n                        g.users.push(msg.sender);\n                    }\n\n                    // return new name\n                    return g.name;\n                }\n            }\n        // if greyhound name not found, return message\n        return \"Unsuccessful request\";\n    }\n\n    // find all user addresses for a given greyhound\n    function getUsers(string memory _name) public view returns(address[] memory) {\n        address[] memory myUsers;\n        for(uint i = 0; i<greyhounds.length; i++){\n            Greyhound storage g = greyhounds[i];\n            if(keccak256(abi.encodePacked(g.name)) == keccak256(abi.encodePacked(_name))){\n                myUsers = g.users;\n            }\n        }\n        return myUsers;\n    }\n\n    function getGreyhoundRef(string memory _name) public view returns(uint) {\n        for(uint i = 0; i<greyhounds.length; i++){\n            Greyhound storage g = greyhounds[i];\n            if(keccak256(abi.encodePacked(g.name)) == keccak256(abi.encodePacked(_name))){\n                return g.ref;\n            }\n        }\n    }\n\n}\n",
  "sourcePath": "/Users/hollyatkinson/Development/code/mod_5/greyledger/greyledger_client/contracts/GreyhoundFactory.sol",
  "compiler": {
    "name": "solc",
    "version": "0.5.0+commit.1d4f565a.Emscripten.clang"
  },
  "schemaVersion": "3.0.1",
  "updatedAt": "2019-03-05T11:00:03.640Z",
  "devdoc": {
    "methods": {}
  },
  "userdoc": {
    "methods": {}
  }
}