{
  "contractName": "greyhoundFactory",
  "abi": [
    {
      "constant": true,
      "inputs": [
        {
          "name": "",
          "type": "uint256"
        }
      ],
      "name": "greyhounds",
      "outputs": [
        {
          "name": "name",
          "type": "string"
        },
        {
          "name": "ear_marks",
          "type": "string"
        },
        {
          "name": "sexSireBirthdate",
          "type": "string"
        },
        {
          "name": "status",
          "type": "string"
        },
        {
          "name": "owners",
          "type": "string"
        },
        {
          "name": "ref",
          "type": "uint256"
        }
      ],
      "payable": false,
      "stateMutability": "view",
      "type": "function",
      "signature": "0x4b2e502e"
    },
    {
      "constant": true,
      "inputs": [],
      "name": "owner",
      "outputs": [
        {
          "name": "",
          "type": "address"
        }
      ],
      "payable": false,
      "stateMutability": "view",
      "type": "function",
      "signature": "0x8da5cb5b"
    },
    {
      "inputs": [],
      "payable": false,
      "stateMutability": "nonpayable",
      "type": "constructor",
      "signature": "constructor"
    },
    {
      "anonymous": false,
      "inputs": [
        {
          "indexed": false,
          "name": "greyhoundId",
          "type": "uint256"
        },
        {
          "indexed": false,
          "name": "name",
          "type": "string"
        }
      ],
      "name": "GreyhoundAdded",
      "type": "event",
      "signature": "0x74747eccd6c1e50922b1a5aa0a40574e0da3885be753c961b17c08dcc4b10394"
    },
    {
      "constant": true,
      "inputs": [],
      "name": "getNumGreyhounds",
      "outputs": [
        {
          "name": "",
          "type": "uint256"
        }
      ],
      "payable": false,
      "stateMutability": "view",
      "type": "function",
      "signature": "0x1c406fc8"
    },
    {
      "constant": false,
      "inputs": [
        {
          "name": "_name",
          "type": "string"
        },
        {
          "name": "_ear_marks",
          "type": "string"
        },
        {
          "name": "_sexSireBirthdate",
          "type": "string"
        },
        {
          "name": "_status",
          "type": "string"
        },
        {
          "name": "_owners",
          "type": "string"
        },
        {
          "name": "_address",
          "type": "address[]"
        }
      ],
      "name": "createUniqueGreyhound",
      "outputs": [
        {
          "name": "",
          "type": "uint256"
        }
      ],
      "payable": false,
      "stateMutability": "nonpayable",
      "type": "function",
      "signature": "0x55f0244c"
    },
    {
      "constant": false,
      "inputs": [],
      "name": "findMyGreyhounds",
      "outputs": [
        {
          "name": "",
          "type": "uint256[]"
        }
      ],
      "payable": false,
      "stateMutability": "nonpayable",
      "type": "function",
      "signature": "0x92bb4167"
    },
    {
      "constant": false,
      "inputs": [
        {
          "name": "_name",
          "type": "string"
        },
        {
          "name": "_new_name",
          "type": "string"
        },
        {
          "name": "_status",
          "type": "string"
        },
        {
          "name": "_ear_marks",
          "type": "string"
        },
        {
          "name": "_owners",
          "type": "string"
        }
      ],
      "name": "updateGreyhound",
      "outputs": [
        {
          "name": "",
          "type": "string"
        }
      ],
      "payable": false,
      "stateMutability": "nonpayable",
      "type": "function",
      "signature": "0x8a838f13"
    },
    {
      "constant": true,
      "inputs": [
        {
          "name": "_name",
          "type": "string"
        }
      ],
      "name": "getUsers",
      "outputs": [
        {
          "name": "",
          "type": "address[]"
        }
      ],
      "payable": false,
      "stateMutability": "view",
      "type": "function",
      "signature": "0xbf02c9fc"
    },
    {
      "constant": true,
      "inputs": [
        {
          "name": "_name",
          "type": "string"
        }
      ],
      "name": "getGreyhoundRef",
      "outputs": [
        {
          "name": "",
          "type": "uint256"
        }
      ],
      "payable": false,
      "stateMutability": "view",
      "type": "function",
      "signature": "0x44fbb543"
    },
    {
      "constant": false,
      "inputs": [],
      "name": "kill",
      "outputs": [],
      "payable": false,
      "stateMutability": "nonpayable",
      "type": "function",
      "signature": "0x41c0e1b5"
    }
  ],
  "bytecode": "0x6080604052600080556010600155600154600a0a60025534801561002257600080fd5b5033600460006101000a81548173ffffffffffffffffffffffffffffffffffffffff021916908373ffffffffffffffffffffffffffffffffffffffff160217905550611fb1806100736000396000f3fe608060405260043610610099576000357c0100000000000000000000000000000000000000000000000000000000900463ffffffff1680631c406fc81461009e57806341c0e1b5146100c957806344fbb543146100e05780634b2e502e146101bc57806355f0244c146104275780638a838f13146107f35780638da5cb5b14610b9057806392bb416714610be7578063bf02c9fc14610c53575b600080fd5b3480156100aa57600080fd5b506100b3610d70565b6040518082815260200191505060405180910390f35b3480156100d557600080fd5b506100de610d79565b005b3480156100ec57600080fd5b506101a66004803603602081101561010357600080fd5b810190808035906020019064010000000081111561012057600080fd5b82018360208201111561013257600080fd5b8035906020019184600183028401116401000000008311171561015457600080fd5b91908080601f016020809104026020016040519081016040528093929190818152602001838380828437600081840152601f19601f820116905080830192505050505050509192919290505050610e10565b6040518082815260200191505060405180910390f35b3480156101c857600080fd5b506101f5600480360360208110156101df57600080fd5b8101908080359060200190929190505050610f60565b60405180806020018060200180602001806020018060200187815260200186810386528c818151815260200191508051906020019080838360005b8381101561024b578082015181840152602081019050610230565b50505050905090810190601f1680156102785780820380516001836020036101000a031916815260200191505b5086810385528b818151815260200191508051906020019080838360005b838110156102b1578082015181840152602081019050610296565b50505050905090810190601f1680156102de5780820380516001836020036101000a031916815260200191505b5086810384528a818151815260200191508051906020019080838360005b838110156103175780820151818401526020810190506102fc565b50505050905090810190601f1680156103445780820380516001836020036101000a031916815260200191505b50868103835289818151815260200191508051906020019080838360005b8381101561037d578082015181840152602081019050610362565b50505050905090810190601f1680156103aa5780820380516001836020036101000a031916815260200191505b50868103825288818151815260200191508051906020019080838360005b838110156103e35780820151818401526020810190506103c8565b50505050905090810190601f1680156104105780820380516001836020036101000a031916815260200191505b509b50505050505050505050505060405180910390f35b34801561043357600080fd5b506107dd600480360360c081101561044a57600080fd5b810190808035906020019064010000000081111561046757600080fd5b82018360208201111561047957600080fd5b8035906020019184600183028401116401000000008311171561049b57600080fd5b91908080601f016020809104026020016040519081016040528093929190818152602001838380828437600081840152601f19601f820116905080830192505050505050509192919290803590602001906401000000008111156104fe57600080fd5b82018360208201111561051057600080fd5b8035906020019184600183028401116401000000008311171561053257600080fd5b91908080601f016020809104026020016040519081016040528093929190818152602001838380828437600081840152601f19601f8201169050808301925050505050505091929192908035906020019064010000000081111561059557600080fd5b8201836020820111156105a757600080fd5b803590602001918460018302840111640100000000831117156105c957600080fd5b91908080601f016020809104026020016040519081016040528093929190818152602001838380828437600081840152601f19601f8201169050808301925050505050505091929192908035906020019064010000000081111561062c57600080fd5b82018360208201111561063e57600080fd5b8035906020019184600183028401116401000000008311171561066057600080fd5b91908080601f016020809104026020016040519081016040528093929190818152602001838380828437600081840152601f19601f820116905080830192505050505050509192919290803590602001906401000000008111156106c357600080fd5b8201836020820111156106d557600080fd5b803590602001918460018302840111640100000000831117156106f757600080fd5b91908080601f016020809104026020016040519081016040528093929190818152602001838380828437600081840152601f19601f8201169050808301925050505050505091929192908035906020019064010000000081111561075a57600080fd5b82018360208201111561076c57600080fd5b8035906020019184602083028401116401000000008311171561078e57600080fd5b919080806020026020016040519081016040528093929190818152602001838360200280828437600081840152601f19601f8201169050808301925050505050505091929192905050506112a3565b6040518082815260200191505060405180910390f35b3480156107ff57600080fd5b50610b15600480360360a081101561081657600080fd5b810190808035906020019064010000000081111561083357600080fd5b82018360208201111561084557600080fd5b8035906020019184600183028401116401000000008311171561086757600080fd5b91908080601f016020809104026020016040519081016040528093929190818152602001838380828437600081840152601f19601f820116905080830192505050505050509192919290803590602001906401000000008111156108ca57600080fd5b8201836020820111156108dc57600080fd5b803590602001918460018302840111640100000000831117156108fe57600080fd5b91908080601f016020809104026020016040519081016040528093929190818152602001838380828437600081840152601f19601f8201169050808301925050505050505091929192908035906020019064010000000081111561096157600080fd5b82018360208201111561097357600080fd5b8035906020019184600183028401116401000000008311171561099557600080fd5b91908080601f016020809104026020016040519081016040528093929190818152602001838380828437600081840152601f19601f820116905080830192505050505050509192919290803590602001906401000000008111156109f857600080fd5b820183602082011115610a0a57600080fd5b80359060200191846001830284011164010000000083111715610a2c57600080fd5b91908080601f016020809104026020016040519081016040528093929190818152602001838380828437600081840152601f19601f82011690508083019250505050505050919291929080359060200190640100000000811115610a8f57600080fd5b820183602082011115610aa157600080fd5b80359060200191846001830284011164010000000083111715610ac357600080fd5b91908080601f016020809104026020016040519081016040528093929190818152602001838380828437600081840152601f19601f82011690508083019250505050505050919291929050505061135d565b6040518080602001828103825283818151815260200191508051906020019080838360005b83811015610b55578082015181840152602081019050610b3a565b50505050905090810190601f168015610b825780820380516001836020036101000a031916815260200191505b509250505060405180910390f35b348015610b9c57600080fd5b50610ba56116fe565b604051808273ffffffffffffffffffffffffffffffffffffffff1673ffffffffffffffffffffffffffffffffffffffff16815260200191505060405180910390f35b348015610bf357600080fd5b50610bfc611724565b6040518080602001828103825283818151815260200191508051906020019060200280838360005b83811015610c3f578082015181840152602081019050610c24565b505050509050019250505060405180910390f35b348015610c5f57600080fd5b50610d1960048036036020811015610c7657600080fd5b8101908080359060200190640100000000811115610c9357600080fd5b820183602082011115610ca557600080fd5b80359060200191846001830284011164010000000083111715610cc757600080fd5b91908080601f016020809104026020016040519081016040528093929190818152602001838380828437600081840152601f19601f8201169050808301925050505050505091929192905050506118af565b6040518080602001828103825283818151815260200191508051906020019060200280838360005b83811015610d5c578082015181840152602081019050610d41565b505050509050019250505060405180910390f35b60008054905090565b600460009054906101000a900473ffffffffffffffffffffffffffffffffffffffff1673ffffffffffffffffffffffffffffffffffffffff163373ffffffffffffffffffffffffffffffffffffffff16141515610dd557600080fd5b600460009054906101000a900473ffffffffffffffffffffffffffffffffffffffff1673ffffffffffffffffffffffffffffffffffffffff16ff5b600080600090505b600580549050811015610f59576000600582815481101515610e3657fe5b90600052602060002090600702019050836040516020018082805190602001908083835b602083101515610e7f5780518252602082019150602081019050602083039250610e5a565b6001836020036101000a03801982511681845116808217855250505050505090500191505060405160208183030381529060405280519060200120816000016040516020018082805460018160011615610100020316600290048015610f1c5780601f10610efa576101008083540402835291820191610f1c565b820191906000526020600020905b815481529060010190602001808311610f08575b5050915050604051602081830303815290604052805190602001201415610f4b57806005015492505050610f5b565b508080600101915050610e18565b505b919050565b600581815481101515610f6f57fe5b9060005260206000209060070201600091509050806000018054600181600116156101000203166002900480601f01602080910402602001604051908101604052809291908181526020018280546001816001161561010002031660029004801561101b5780601f10610ff05761010080835404028352916020019161101b565b820191906000526020600020905b815481529060010190602001808311610ffe57829003601f168201915b505050505090806001018054600181600116156101000203166002900480601f0160208091040260200160405190810160405280929190818152602001828054600181600116156101000203166002900480156110b95780601f1061108e576101008083540402835291602001916110b9565b820191906000526020600020905b81548152906001019060200180831161109c57829003601f168201915b505050505090806002018054600181600116156101000203166002900480601f0160208091040260200160405190810160405280929190818152602001828054600181600116156101000203166002900480156111575780601f1061112c57610100808354040283529160200191611157565b820191906000526020600020905b81548152906001019060200180831161113a57829003601f168201915b505050505090806003018054600181600116156101000203166002900480601f0160208091040260200160405190810160405280929190818152602001828054600181600116156101000203166002900480156111f55780601f106111ca576101008083540402835291602001916111f5565b820191906000526020600020905b8154815290600101906020018083116111d857829003601f168201915b505050505090806004018054600181600116156101000203166002900480601f0160208091040260200160405190810160405280929190818152602001828054600181600116156101000203166002900480156112935780601f1061126857610100808354040283529160200191611293565b820191906000526020600020905b81548152906001019060200180831161127657829003601f168201915b5050505050908060050154905086565b6000806112af88611a81565b905060006112c28989898989878a611b14565b905060006005828154811015156112d557fe5b90600052602060002090600702019050806006013390806001815401808255809150509060018203906000526020600020016000909192909190916101000a81548173ffffffffffffffffffffffffffffffffffffffff021916908373ffffffffffffffffffffffffffffffffffffffff160217905550508193505050509695505050505050565b606060008090505b6005805490508110156116bb57600060058281548110151561138357fe5b90600052602060002090600702019050876040516020018082805190602001908083835b6020831015156113cc57805182526020820191506020810190506020830392506113a7565b6001836020036101000a038019825116818451168082178552505050505050905001915050604051602081830303815290604052805190602001208160000160405160200180828054600181600116156101000203166002900480156114695780601f10611447576101008083540402835291820191611469565b820191906000526020600020905b815481529060010190602001808311611455575b50509150506040516020818303038152906040528051906020012014156116ad57868160000190805190602001906114a2929190611d08565b50858160030190805190602001906114bb929190611d08565b50848160010190805190602001906114d4929190611d08565b50838160040190805190602001906114ed929190611d08565b50600080905060008090505b826006018054905081101561158f576000836006018281548110151561151b57fe5b9060005260206000200160009054906101000a900473ffffffffffffffffffffffffffffffffffffffff1690503373ffffffffffffffffffffffffffffffffffffffff168173ffffffffffffffffffffffffffffffffffffffff16141561158157600192505b5080806001019150506114f9565b5060001515811515141561160657816006013390806001815401808255809150509060018203906000526020600020016000909192909190916101000a81548173ffffffffffffffffffffffffffffffffffffffff021916908373ffffffffffffffffffffffffffffffffffffffff160217905550505b816000018054600181600116156101000203166002900480601f01602080910402602001604051908101604052809291908181526020018280546001816001161561010002031660029004801561169e5780601f106116735761010080835404028352916020019161169e565b820191906000526020600020905b81548152906001019060200180831161168157829003601f168201915b505050505093505050506116f5565b508080600101915050611365565b506040805190810160405280601481526020017f556e7375636365737366756c207265717565737400000000000000000000000081525090505b95945050505050565b600460009054906101000a900473ffffffffffffffffffffffffffffffffffffffff1681565b606080806003908051906020019061173d929190611d88565b50600080905060008090505b60058054905081101561185657600060058281548110151561176757fe5b9060005260206000209060070201905060008090505b8160060180549050811015611847576000826006018281548110151561179f57fe5b9060005260206000200160009054906101000a900473ffffffffffffffffffffffffffffffffffffffff1690503373ffffffffffffffffffffffffffffffffffffffff168173ffffffffffffffffffffffffffffffffffffffff1614156118395760038360050154908060018154018082558091505090600182039060005260206000200160009091929091909150555084806001019550505b50808060010191505061177d565b50508080600101915050611749565b5060038054806020026020016040519081016040528092919081815260200182805480156118a357602002820191906000526020600020905b81548152602001906001019080831161188f575b50505050509250505090565b60608060008090505b600580549050811015611a775760006005828154811015156118d657fe5b90600052602060002090600702019050846040516020018082805190602001908083835b60208310151561191f57805182526020820191506020810190506020830392506118fa565b6001836020036101000a038019825116818451168082178552505050505050905001915050604051602081830303815290604052805190602001208160000160405160200180828054600181600116156101000203166002900480156119bc5780601f1061199a5761010080835404028352918201916119bc565b820191906000526020600020905b8154815290600101906020018083116119a8575b5050915050604051602081830303815290604052805190602001201415611a695780600601805480602002602001604051908101604052809291908181526020018280548015611a6157602002820191906000526020600020905b8160009054906101000a900473ffffffffffffffffffffffffffffffffffffffff1673ffffffffffffffffffffffffffffffffffffffff1681526020019060010190808311611a17575b505050505092505b5080806001019150506118b8565b5080915050919050565b600080826040516020018082805190602001908083835b602083101515611abd5780518252602082019150602081019050602083039250611a98565b6001836020036101000a0380198251168184511680821785525050505050509050019150506040516020818303038152906040528051906020012060019004905060025481811515611b0b57fe5b06915050919050565b60008060008154809291906001019190505550611b2f611dd5565b60e0604051908101604052808a815260200189815260200188815260200187815260200186815260200185815260200184815250905060006001600583908060018154018082558091505090600182039060005260206000209060070201600090919290919091506000820151816000019080519060200190611bb3929190611e13565b506020820151816001019080519060200190611bd0929190611e13565b506040820151816002019080519060200190611bed929190611e13565b506060820151816003019080519060200190611c0a929190611e13565b506080820151816004019080519060200190611c27929190611e13565b5060a0820151816005015560c0820151816006019080519060200190611c4e929190611e93565b5050500390507f74747eccd6c1e50922b1a5aa0a40574e0da3885be753c961b17c08dcc4b10394818b6040518083815260200180602001828103825283818151815260200191508051906020019080838360005b83811015611cbd578082015181840152602081019050611ca2565b50505050905090810190601f168015611cea5780820380516001836020036101000a031916815260200191505b50935050505060405180910390a18092505050979650505050505050565b828054600181600116156101000203166002900490600052602060002090601f016020900481019282601f10611d4957805160ff1916838001178555611d77565b82800160010185558215611d77579182015b82811115611d76578251825591602001919060010190611d5b565b5b509050611d849190611f1d565b5090565b828054828255906000526020600020908101928215611dc4579160200282015b82811115611dc3578251825591602001919060010190611da8565b5b509050611dd19190611f1d565b5090565b60e060405190810160405280606081526020016060815260200160608152602001606081526020016060815260200160008152602001606081525090565b828054600181600116156101000203166002900490600052602060002090601f016020900481019282601f10611e5457805160ff1916838001178555611e82565b82800160010185558215611e82579182015b82811115611e81578251825591602001919060010190611e66565b5b509050611e8f9190611f1d565b5090565b828054828255906000526020600020908101928215611f0c579160200282015b82811115611f0b5782518260006101000a81548173ffffffffffffffffffffffffffffffffffffffff021916908373ffffffffffffffffffffffffffffffffffffffff16021790555091602001919060010190611eb3565b5b509050611f199190611f42565b5090565b611f3f91905b80821115611f3b576000816000905550600101611f23565b5090565b90565b611f8291905b80821115611f7e57600081816101000a81549073ffffffffffffffffffffffffffffffffffffffff021916905550600101611f48565b5090565b9056fea165627a7a72305820c6c01a9cf8e3db9a40633880a1a2a9b898770e50ce3caff6735827cbab97a0e10029",
  "source": "pragma solidity >=0.4.21 <0.6.0;\n\ncontract greyhoundFactory {\n    uint numGreyhounds = 0;\n    uint greyhoundRef = 16;\n    uint refModulus = 10 ** greyhoundRef;\n    uint[] myGreyhounds;\n    address public owner;\n    \n    constructor() public {\n        owner = msg.sender;\n    }\n\n    struct Greyhound {\n        string name; // greyhound name - can be updated\n        string ear_marks; // greyhound ear_marks - can be updated (left_ear)\n        string sexSireBirthdate; // these fields won't be updated by update function\n        string status; // e.g. new name, new owner(s), retired, euthanised, natural death\n        string owners; // string containing all owners and addresses\n        uint ref; // pseudo-random number\n        address[] users; // initialise an empty array of user addresses\n    }\n\n    Greyhound[] public greyhounds; // all greyhounds ever created\n\n    event GreyhoundAdded(uint greyhoundId, string name);\n\n    function getNumGreyhounds() public view returns (uint) {\n        return numGreyhounds;\n    }\n\n    function _createGreyhound(\n        string memory _name,\n        string memory _ear_marks,\n        string memory _sexSireBirthdate,\n        string memory _status,\n        string memory _owners,\n        uint _randRef,\n        address[] memory _address)\n        private returns(uint) {\n            numGreyhounds++;\n            Greyhound memory greyhound = Greyhound(\n                _name,\n                _ear_marks,\n                _sexSireBirthdate,\n                _status,\n                _owners,\n                _randRef,\n                _address\n            );\n            uint index = greyhounds.push(greyhound) - 1;\n            emit GreyhoundAdded(index, _name);\n            return index;\n    }\n\n    function _generateRandomRef(string memory _str) private view returns (uint) {\n        // generate a pseudo-random 16-digit number\n        // this will be the greyhound's unique identifier\n        uint rand = uint(keccak256(abi.encodePacked(_str)));\n        return rand % refModulus;\n    }\n\n    function createUniqueGreyhound(\n        string memory _name,\n        string memory _ear_marks,\n        string memory _sexSireBirthdate,\n        string memory _status,\n        string memory _owners,\n        address[] memory _address\n        ) public returns(uint) {\n        uint randRef = _generateRandomRef(_name);\n        uint greyhoundId = _createGreyhound(\n            _name,\n            _ear_marks,\n            _sexSireBirthdate,\n            _status,\n            _owners,\n            randRef,\n            _address\n            );\n        Greyhound storage g = greyhounds[greyhoundId];\n        g.users.push(msg.sender);\n        return greyhoundId;\n    }\n\n    function findMyGreyhounds() public returns(uint[] memory) {\n        uint[] memory tempGreyhoundList;\n        myGreyhounds = tempGreyhoundList;\n        uint j = 0;\n        for(uint i = 0; i<greyhounds.length; i++){\n            Greyhound storage g = greyhounds[i];\n            for(uint k = 0; k<g.users.length; k++){\n                address a = g.users[k];\n                if(a == msg.sender){\n                    myGreyhounds.push(g.ref);\n                    j++;\n                }\n            }\n        }\n        // return user's list of unique greyhound identifiers\n        return myGreyhounds;\n    }\n\n    function updateGreyhound(\n        string memory _name,\n        string memory _new_name,\n        string memory _status,\n        string memory _ear_marks,\n        string memory _owners) public returns(string memory) {\n            for(uint i = 0; i<greyhounds.length; i++){\n                Greyhound storage g = greyhounds[i];\n                // if greyhound found, update details\n                if(keccak256(abi.encodePacked(g.name)) == keccak256(abi.encodePacked(_name))){\n                    g.name = _new_name;\n                    g.status = _status;\n                    g.ear_marks = _ear_marks;\n                    g.owners = _owners;\n\n                    // only add user if new address\n                    bool userCheck = false;\n                    for(uint k = 0; k<g.users.length; k++){\n                        address a = g.users[k];\n                        if(a == msg.sender){\n                            userCheck = true;\n                        }\n                    }\n                    if(userCheck == false){\n                        g.users.push(msg.sender);\n                    }\n\n                    // return new name\n                    return g.name;\n                }\n            }\n        // if greyhound name not found, return message\n        return \"Unsuccessful request\";\n    }\n\n    function getUsers(string memory _name) public view returns(address[] memory) {\n        address[] memory myUsers;\n        // myUsers = tempUserList;\n        for(uint i = 0; i<greyhounds.length; i++){\n            Greyhound storage g = greyhounds[i];\n            // if greyhound found, update details\n            if(keccak256(abi.encodePacked(g.name)) == keccak256(abi.encodePacked(_name))){\n                myUsers = g.users;\n            }\n        }\n        return myUsers;\n    }\n\n    function getGreyhoundRef(string memory _name) public view returns(uint) {\n        for(uint i = 0; i<greyhounds.length; i++){\n            Greyhound storage g = greyhounds[i];\n            if(keccak256(abi.encodePacked(g.name)) == keccak256(abi.encodePacked(_name))){\n                return g.ref;\n            }\n        }\n    }\n\n    modifier onlyOwner {\n        require(msg.sender == owner);\n        _;\n    }\n\n    function kill() onlyOwner public {\n        selfdestruct(address(uint160(owner)));\n    }\n\n}\n",
  "sourcePath": "/Users/hollyatkinson/Development/code/mod_5/greyledger/greyledger_client/contracts/GreyhoundFactory.sol",
  "compiler": {
    "name": "solc",
    "version": "0.5.0+commit.1d4f565a.Emscripten.clang"
  },
  "schemaVersion": "3.0.1",
  "updatedAt": "2019-03-09T21:02:35.974Z",
  "devdoc": {
    "methods": {}
  },
  "userdoc": {
    "methods": {}
  }
}