{
  "contractName": "NewGreyhound",
  "abi": [
    {
      "constant": true,
      "inputs": [],
      "name": "greyhoundCount",
      "outputs": [
        {
          "name": "",
          "type": "uint256"
        }
      ],
      "payable": false,
      "stateMutability": "view",
      "type": "function",
      "signature": "0xe1a82883"
    },
    {
      "constant": true,
      "inputs": [],
      "name": "getGreyhoundCount",
      "outputs": [
        {
          "name": "",
          "type": "uint256"
        }
      ],
      "payable": false,
      "stateMutability": "view",
      "type": "function",
      "signature": "0x042bd8f7"
    },
    {
      "constant": false,
      "inputs": [],
      "name": "addGreyhound",
      "outputs": [
        {
          "name": "",
          "type": "uint256"
        }
      ],
      "payable": false,
      "stateMutability": "nonpayable",
      "type": "function",
      "signature": "0xce6d1478"
    }
  ],
  "bytecode": "0x60806040526000805534801561001457600080fd5b50610125806100246000396000f3fe6080604052600436106053576000357c0100000000000000000000000000000000000000000000000000000000900463ffffffff168063042bd8f7146058578063ce6d1478146080578063e1a828831460a8575b600080fd5b348015606357600080fd5b50606a60d0565b6040518082815260200191505060405180910390f35b348015608b57600080fd5b50609260d9565b6040518082815260200191505060405180910390f35b34801560b357600080fd5b5060ba60f3565b6040518082815260200191505060405180910390f35b60008054905090565b600060016000808282540192505081905550600054905090565b6000548156fea165627a7a72305820104a7fad65c83c04a92b6be6ae4b966599516e069dd1232d124b39b1094185220029",
  "source": "pragma solidity >=0.4.21 <0.6.0;\n\ncontract NewGreyhound {\n  uint public greyhoundCount = 0;\n\n  function getGreyhoundCount() public view returns(uint) {\n    return greyhoundCount;\n  }\n\n  function addGreyhound() public returns(uint) {\n    greyhoundCount += 1;\n    return greyhoundCount;\n  }\n\n}\n",
  "sourcePath": "/Users/hollyatkinson/Development/code/mod_5/greyledger/greyledger_client/contracts/NewGreyhound.sol",
  "compiler": {
    "name": "solc",
    "version": "0.5.0+commit.1d4f565a.Emscripten.clang"
  },
  "schemaVersion": "3.0.1",
  "updatedAt": "2019-02-20T12:16:50.550Z",
  "devdoc": {
    "methods": {}
  },
  "userdoc": {
    "methods": {}
  }
}